:1000000005EF01F0436865636B73756D20726F6D6A
:10001000206370753A202532580D0A0043686563E5
:100020006B73756D2063616C63756C61646F2063C5
:1000300070753A202532580D0A00436865636B736A
:10004000756D20696E636F72726563746F204350C3
:100050005520444554454E4944410D0A0000F2CF15
:1000600008F0F29E090EA96EA69CA69EA680A85036
:1000700008BEF28E046EF2CF08F0F29E0A0EA96E50
:10008000A69CA69EA680A85008BEF28E056EF2CF52
:1000900008F0F29E0D0EA96EA69CA69EA680A85002
:1000A00008BEF28E066E61EF01F0949A8B8A9EA8CC
:1000B000FED7949A8B8A0EC0ADFF0000ACA2FED78B
:1000C000949A8B9A12000900F6CF0CF0F7CF0DF03E
:1000D000F5CF0EF0EADF0CC0F6FF0DC0F7FF0B2ED8
:1000E000F2D712000CBE0FD00F0E006E0B380016A8
:1000F0000A0E005C03E2300E002602D00C500026EF
:1001000000C00EF0D2DF0F0E0B160A0E0B5C02E2DF
:10011000300E02D00C9E0C500B260BC00EF0C5DF2B
:1001200012000900F5520CE0F6CF0BF0F7CF0CF0FF
:10013000F5CF0EF0BADF0BC0F6FF0CC0F7FFF1D71A
:1001400000EF01F00A6A096A086AF2CF0BF0F29E2A
:100150000D0EA96EA69CA69EA680A8500BBEF28E80
:10016000066E040EF66E000EF76E120E0B6EABDF0F
:1001700006C00BF0370E0C6EB5DF0D0E0E6E95DF60
:100180000A0E0E6E92DF070E096EA80E086E095059
:100190001F0819E303E10850FE0815E3F2CF0BF046
:1001A000F29EF86A09C0F7FF08C0F6FF0900F55093
:1001B0000800F5CF03F0F86A0BBEF28E0A1A082A7F
:1001C000D8B4092AE4D74D0E0A1A1C0EF66E000E9A
:1001D000F76E180E0B6E77DF0AC00BF0370E0C6E41
:1001E00081DF0D0E0E6E61DF0A0E0E6E5EDF0650B1
:1001F0000A1A0A5206E03A0EF66E000EF76E91D712
:10020000FF000AC001F062EF01F0F86AD09EFE0E16
:10021000006E060E016E020EE96E000EEA6EEE6AC8
:10022000002EFDD7012EFBD7320E046E040E056E94
:10023000066A07900792949A8B9A150EAF6EA60ED7
:10024000AC6E900EAB6EC180C182C184C196C1807C
:10025000C182C184C196C2909698C69A949A948895
:100260009496010EC66E000EC76ED190800ED56EAC
:10027000B50ECD6E200E0609CA6EF90ECB6EB16AB0
:100280000B0EBD6E280EBE6EF40EBF6E9D8A9D8451
:100290009D82C00EF212926A896A946A8B6A956A8C
:1002A0008C6A9690969296948D6A230E926EFF0EAB
:1002B000936E800E946EFF0E956E96909692969425
:0A02C000CED640D7015200E0030043
:020000040030CA
:0E0000000022060F0001810000C00FE00F403B
:00000001FF
;PIC18F452
;CRC=6157  CREATED="01-ago.-18 17:43"
